{
  "contractName": "SimpleStorage",
  "abi": [
    {
      "constant": true,
      "inputs": [
        {
          "internalType": "uint256",
          "name": "",
          "type": "uint256"
        }
      ],
      "name": "transaction",
      "outputs": [
        {
          "internalType": "address",
          "name": "transactionOwner",
          "type": "address"
        },
        {
          "internalType": "string",
          "name": "transactionDescription",
          "type": "string"
        },
        {
          "internalType": "int64",
          "name": "amount",
          "type": "int64"
        }
      ],
      "payable": false,
      "stateMutability": "view",
      "type": "function"
    },
    {
      "constant": false,
      "inputs": [
        {
          "internalType": "string",
          "name": "description",
          "type": "string"
        },
        {
          "internalType": "int64",
          "name": "amount",
          "type": "int64"
        }
      ],
      "name": "addTransaction",
      "outputs": [],
      "payable": false,
      "stateMutability": "nonpayable",
      "type": "function"
    },
    {
      "constant": true,
      "inputs": [],
      "name": "transactionCount",
      "outputs": [
        {
          "internalType": "uint256",
          "name": "",
          "type": "uint256"
        }
      ],
      "payable": false,
      "stateMutability": "view",
      "type": "function"
    },
    {
      "constant": false,
      "inputs": [],
      "name": "transactionDetails",
      "outputs": [
        {
          "internalType": "uint256",
          "name": "",
          "type": "uint256"
        },
        {
          "internalType": "string",
          "name": "",
          "type": "string"
        }
      ],
      "payable": false,
      "stateMutability": "nonpayable",
      "type": "function"
    }
  ],
  "bytecode": "0x608060405234801561001057600080fd5b50610615806100206000396000f3fe608060405234801561001057600080fd5b506004361061004c5760003560e01c80631452e7cc1461005157806346bd0841146100db57806372d06472146101c2578063b77bf6001461028a575b600080fd5b6100596102a8565b6040518083815260200180602001828103825283818151815260200191508051906020019080838360005b8381101561009f578082015181840152602081019050610084565b50505050905090810190601f1680156100cc5780820380516001836020036101000a031916815260200191505b50935050505060405180910390f35b610107600480360360208110156100f157600080fd5b81019080803590602001909291905050506102ef565b604051808473ffffffffffffffffffffffffffffffffffffffff1673ffffffffffffffffffffffffffffffffffffffff168152602001806020018360070b60070b8152602001828103825284818151815260200191508051906020019080838360005b8381101561018557808201518184015260208101905061016a565b50505050905090810190601f1680156101b25780820380516001836020036101000a031916815260200191505b5094505050505060405180910390f35b610288600480360360408110156101d857600080fd5b81019080803590602001906401000000008111156101f557600080fd5b82018360208201111561020757600080fd5b8035906020019184600183028401116401000000008311171561022957600080fd5b91908080601f016020809104026020016040519081016040528093929190818152602001838380828437600081840152601f19601f820116905080830192505050505050509192919290803560070b90602001909291905050506103eb565b005b6102926104f5565b6040518082815260200191505060405180910390f35b60006060602c8090506040518060400160405280600581526020017f41697a617a000000000000000000000000000000000000000000000000000000815250915091509091565b600081815481106102fc57fe5b90600052602060002090600302016000915090508060000160009054906101000a900473ffffffffffffffffffffffffffffffffffffffff1690806001018054600181600116156101000203166002900480601f0160208091040260200160405190810160405280929190818152602001828054600181600116156101000203166002900480156103ce5780601f106103a3576101008083540402835291602001916103ce565b820191906000526020600020905b8154815290600101906020018083116103b157829003601f168201915b5050505050908060020160009054906101000a900460070b905083565b6103f3610501565b60405180606001604052803373ffffffffffffffffffffffffffffffffffffffff1681526020018481526020018360070b81525090506000819080600181540180825580915050906001820390600052602060002090600302016000909192909190915060008201518160000160006101000a81548173ffffffffffffffffffffffffffffffffffffffff021916908373ffffffffffffffffffffffffffffffffffffffff16021790555060208201518160010190805190602001906104ba92919061053b565b5060408201518160020160006101000a81548167ffffffffffffffff021916908360070b67ffffffffffffffff160217905550505050505050565b60008080549050905090565b6040518060600160405280600073ffffffffffffffffffffffffffffffffffffffff16815260200160608152602001600060070b81525090565b828054600181600116156101000203166002900490600052602060002090601f016020900481019282601f1061057c57805160ff19168380011785556105aa565b828001600101855582156105aa579182015b828111156105a957825182559160200191906001019061058e565b5b5090506105b791906105bb565b5090565b6105dd91905b808211156105d95760008160009055506001016105c1565b5090565b9056fea265627a7a723158205665cf2389349f3e633df78f9676df0e3eefb1706106e639668e088ed375b76364736f6c63430005100032",
  "source": "// SPDX-License-Identifier: MIT\npragma solidity >=0.4.21 <0.7.0;\n\ncontract SimpleStorage {\n    Transaction[] public transaction;\n\n    struct Transaction {\n        address transactionOwner;\n        string transactionDescription;\n        int64 amount;\n    }\n    \n    function addTransaction(string memory description , int64 amount) public {\n        Transaction memory tx1 = Transaction(msg.sender,description,amount);\n        transaction.push(tx1);\n    }\n    \n    function transactionCount() public view returns (uint){\n        return transaction.length;\n    }\n    function transactionDetails() public returns(uint, string memory) {\n        return(44, \"Aizaz\");\n    }\n}",
  "sourcePath": "C:/Users/Aizaz Ahmad/Desktop/react/solidity/pets/contracts/SimpleStorage.sol",
  "compiler": {
    "name": "solc",
    "version": "0.5.16+commit.9c3226ce.Emscripten.clang"
  },
  "schemaVersion": "3.4.1",
  "updatedAt": "2021-06-28T10:14:36.633Z",
  "networkType": "ethereum",
  "devdoc": {
    "methods": {}
  },
  "userdoc": {
    "methods": {}
  }
}