{
  "contractName": "First",
  "abi": [
    {
      "constant": true,
      "inputs": [],
      "name": "age3",
      "outputs": [
        {
          "internalType": "int256",
          "name": "",
          "type": "int256"
        }
      ],
      "payable": false,
      "stateMutability": "view",
      "type": "function"
    },
    {
      "constant": true,
      "inputs": [],
      "name": "age4",
      "outputs": [
        {
          "internalType": "int256",
          "name": "",
          "type": "int256"
        }
      ],
      "payable": false,
      "stateMutability": "view",
      "type": "function"
    },
    {
      "constant": true,
      "inputs": [],
      "name": "getAge",
      "outputs": [
        {
          "internalType": "int256",
          "name": "",
          "type": "int256"
        }
      ],
      "payable": false,
      "stateMutability": "view",
      "type": "function"
    },
    {
      "constant": true,
      "inputs": [],
      "name": "getAge2",
      "outputs": [
        {
          "internalType": "int256",
          "name": "",
          "type": "int256"
        }
      ],
      "payable": false,
      "stateMutability": "view",
      "type": "function"
    },
    {
      "constant": true,
      "inputs": [],
      "name": "getAge3",
      "outputs": [
        {
          "internalType": "int256",
          "name": "",
          "type": "int256"
        }
      ],
      "payable": false,
      "stateMutability": "view",
      "type": "function"
    },
    {
      "constant": true,
      "inputs": [],
      "name": "getAge4",
      "outputs": [
        {
          "internalType": "int256",
          "name": "",
          "type": "int256"
        }
      ],
      "payable": false,
      "stateMutability": "view",
      "type": "function"
    }
  ],
  "bytecode": "0x608060405260146000556028600155600e60025534801561001f57600080fd5b506101808061002f6000396000f3fe608060405234801561001057600080fd5b50600436106100625760003560e01c80630bc0552814610067578063265247b21461008557806334a43300146100a3578063967e6e65146100c1578063f1549d7c146100df578063f6e8fd5f146100fd575b600080fd5b61006f61011b565b6040518082815260200191505060405180910390f35b61008d610121565b6040518082815260200191505060405180910390f35b6100ab61012a565b6040518082815260200191505060405180910390f35b6100c9610134565b6040518082815260200191505060405180910390f35b6100e761013d565b6040518082815260200191505060405180910390f35b610105610146565b6040518082815260200191505060405180910390f35b60025481565b6000603c905090565b6000600154905090565b60008054905090565b60008054905090565b603c8156fea265627a7a72315820bff89e06d5bc11af4bf7bb18d66b19aa49ff3d058c866a5debe9900e5c2aec9964736f6c63430005100032",
  "source": "pragma solidity ^0.5.1;\r\n\r\ncontract First {\r\n    int internal age = 20;\r\n    int private age2 = 40;\r\n    int public constant age3 = 60;\r\n    int public age4 = 14;\r\n\r\n    function getAge() public view returns(int) {\r\n        return age;\r\n    }\r\n    function getAge2() public view returns(int) {\r\n        return age2;\r\n    }\r\n    function getAge3() public view returns(int) {\r\n        return age3;\r\n    }\r\n    function getAge4() public view returns(int) {\r\n        return age;\r\n    }\r\n}",
  "sourcePath": "C:/Users/Aizaz Ahmad/Desktop/react/solidity/project1/contracts/first.sol",
  "compiler": {
    "name": "solc",
    "version": "0.5.16+commit.9c3226ce.Emscripten.clang"
  },
  "schemaVersion": "3.4.1",
  "updatedAt": "2021-05-22T03:44:46.809Z",
  "devdoc": {
    "methods": {}
  },
  "userdoc": {
    "methods": {}
  }
}